S0130000537072696E74735F4361722E73726563A9
S11300000C942A000C943C000C943C000C943C008E
S11300100C943C000C943C000C943C000C943C006C
S11300200C943C000C943C000C943C000C943C005C
S11300300C943C000C943C000C943C000C943C004C
S11300400C943C000C943C000C943C000C943C003C
S11300500C943C0011241FBECFE5D8E0DEBFCDBF19
S113006020E0A0E6B0E001C01D92A636B207E1F799
S11300700E94DD010C9401050C9400000E941A03F7
S11300800E94B90141E060E080E00E94810141E00A
S113009061E080E00E94810141E062E080E00E9432
S11300A0810141E063E080E00E9481010895CF93E3
S11300B0C82F40E060E081E00E94670241E061E017
S11300C081E00E94670240E062E081E00E946702F2
S11300D041E063E081E00E9467020E94D7018C2F17
S11300E00E94CE01CF910895CF93C82F41E060E0E4
S11300F081E00E94670240E061E081E00E946702C3
S113010041E062E081E00E94670240E063E081E058
S11301100E9467020E94D7018C2F0E94CE01CF91CA
S1130120089540E060E081E00E94670240E061E001
S113013081E00E94670240E062E081E00E94670281
S113014041E063E081E00E9467020E94D7018EE1F2
S11301500E94CE01089540E060E081E00E946702C1
S113016041E061E081E00E94670240E062E081E0FA
S11301700E94670240E063E081E00E9467020E94FF
S1130180D7018EE10E94CE01089540E060E081E055
S11301900E94670240E061E081E00E94670240E063
S11301A062E081E00E94670240E063E081E00E9437
S11301B067020E94DA01089541E060E080E00E9455
S11301C0A4018093650041E061E080E00E94A40105
S11301D08093640041E062E080E00E94A401809387
S11301E0630041E063E080E00E94A4018093620028
S11301F080916500813009F045C0809161008130B3
S1130200A9F028F0823009F1833071F13BC081E01C
S113021080936000809361002FE58AEE90E0215086
S113022080409040E1F700C000002CC082E0809341
S11302306000809361002FE58AEE90E021508040B9
S11302409040E1F700C000001DC083E0809360008F
S1130250809361002FE58AEE90E021508040904029
S1130260E1F700C000000EC084E0809360001092AB
S113027061002FE58AEE90E0215080409040E1F744
S113028000C00000809164008130E1F4809160003E
S1130290823069F018F4813031F014C0833059F0A1
S11302A0843069F00FC08EE10E9457000BC08CE3CC
S11302B00E94570007C08AE50E94570003C08EE1E0
S11302C00E94740080916300813011F40E949100B7
S11302D080916200813011F40E94AB00809165002E
S11302E081110EC08091640081110AC08091630065
S11302F0811106C080916200811102C00E94C50074
S113030008951F93CF93DF938430C0F46830B0F422
S1130310142FD62FC82F40E00E94E201111106C00D
S113032041E06D2F8C2F0E9467020AC0113041F406
S113033040E06D2F8C2F0E94670202C08FEF00C037
S1130340DF91CF911F910895411107C00E94EC02E3
S113035091E0882361F090E00AC0413039F40E94B2
S1130360EC0291E0813019F090E001C09FEF892FF9
S1130370089541E060E081E00E94E20141E061E033
S113038081E00E94E20141E062E081E00E94E2013A
S113039041E063E081E00E94E2010895682F70E08B
S11303A080E090E00E9406040E94460308950E94A3
S11303B05D0308950E94610308950E943E000E9417
S11303C0DC00FDCF413009F040C08130A1F028F0BD
S11303D08230F9F0833059F10895683008F076C01E
S11303E02AB381E090E002C0880F991F6A95E2F772
S11303F0822B8ABB0895683008F068C027B381E077
S113040090E002C0880F991F6A95E2F7822B87BBA0
S11304100895683008F05AC024B381E090E002C027
S1130420880F991F6A95E2F7822B84BB0895683080
S113043008F04CC021B381E090E002C0880F991FFE
S11304406A95E2F7822B81BB089541113FC0813048
S1130450A1F028F08230F9F0833059F10895683022
S1130460A8F52AB381E090E002C0880F991F6A952D
S1130470E2F7809582238ABB0895683038F527B364
S113048081E090E002C0880F991F6A95E2F7809599
S1130490822387BB08956830C8F424B381E090E0D8
S11304A002C0880F991F6A95E2F78095822384BB66
S11304B00895683058F421B381E090E002C0880FB9
S11304C0991F6A95E2F78095822381BB0895413094
S11304D009F040C08130A1F028F08230F9F0833077
S11304E059F10895683008F076C02BB381E090E0AC
S11304F002C0880F991F6A95E2F7822B8BBB08957F
S1130500683008F068C028B381E090E002C0880F2A
S1130510991F6A95E2F7822B88BB0895683008F02A
S11305205AC025B381E090E002C0880F991F6A95F4
S1130530E2F7822B85BB0895683008F04CC022B3E3
S113054081E090E002C0880F991F6A95E2F7822B40
S113055082BB089541113FC08130A1F028F0823060
S1130560F9F0833059F108956830A8F52BB381E090
S113057090E002C0880F991F6A95E2F78095822364
S11305808BBB0895683038F528B381E090E002C051
S1130590880F991F6A95E2F78095822388BB089596
S11305A06830C8F425B381E090E002C0880F991F39
S11305B06A95E2F78095822385BB0895683058F4E4
S11305C022B381E090E002C0880F991F6A95E2F798
S11305D08095822382BB0895813079F028F082309F
S11305E0A9F08330E1F024C089B390E002C095956E
S11305F087956A95E2F78170089586B390E002C00A
S1130600959587956A95E2F78170089583B390E094
S113061002C0959587956A95E2F78170089580B335
S113062090E002C0959587956A95E2F781700895E8
S113063080E0089583B78B7F83BF83B78D7F83BFAB
S113064083B78E7F83BF8EB580618EBD8EB5886083
S11306508EBD8FB582608FBD8FB58E7F8FBD41E01B
S113066064E083E00E94E20141E065E083E00E94EF
S1130670E2018FB580688FBD8FB580628FBD8FB565
S11306808F7B8FBD8FB58F7E8FBD089529EF30E0AE
S113069037BD26BD20E030E048EC52E40E946503FB
S11306A020E030E04AE753E40E9494040E94D70318
S11306B07BBD6ABD79BD68BD08958EB584608EBD6D
S11306C008958EB5886F8EBD08950E9479030C94A9
S11306D05A040E94530458F00E944C0440F029F438
S11306E05F3F29F00C94430451110C948E040C9434
S11306F049040E946B0468F39923B1F3552391F3E1
S1130700951B550BBB27AA2762177307840738F07C
S11307109F5F5F4F220F331F441FAA1FA9F335D0D9
S11307200E2E3AF0E0E832D091505040E695001C8D
S1130730CAF72BD0FE2F29D0660F771F881FBB1F47
S1130740261737074807AB07B0E809F0BB0B802D25
S1130750BF01FF2793585F4F3AF09E3F510578F051
S11307600C9443040C948E045F3FE4F3983ED4F35A
S1130770869577956795B795F7959F5FC9F7880F25
S1130780911D9695879597F90895E1E0660F771F77
S1130790881FBB1F621773078407BA0720F0621B08
S11307A0730B840BBA0BEE1F88F7E09508950E9433
S11307B0730488F09F5798F0B92F9927B751B0F078
S11307C0E1F0660F771F881F991F1AF0BA95C9F7D1
S11307D014C0B13091F00E948D04B1E008950C94DE
S11307E08D04672F782F8827B85F39F0B93FCCF391
S11307F0869577956795B395D9F73EF4909580954E
S1130800709561957F4F8F4F9F4F0895E89409C06D
S113081097FB3EF490958095709561957F4F8F4F2F
S11308209F4F9923A9F0F92F96E9BB279395F69545
S1130830879577956795B795F111F8CFFAF4BB0FC3
S113084011F460FF1BC06F5F7F4F8F4F9F4F16C027
S1130850882311F096E911C0772321F09EE8872FB1
S1130860762F05C0662371F096E8862F70E060E06D
S11308702AF09A95660F771F881FDAF7880F9695E6
S1130880879597F9089597F99F6780E870E060E08D
S113089008959FEF80EC089500240A941616170615
S11308A018060906089500240A941216130614065D
S11308B005060895092E0394000C11F4882352F0C0
S11308C0BB0F40F4BF2B11F460FF04C06F5F7F4F78
S11308D08F4F9F4F089557FD9058440F551F59F05F
S11308E05F3F71F04795880F97FB991F61F09F3F19
S11308F079F087950895121613061406551FF2CF42
S11309004695F1DF08C0161617061806991FF1CF91
S113091086957105610508940895E894BB276627B8
S11309207727CB0197F908950E94A7040C945A04E1
S11309300E944C0438F00E94530420F0952311F0D7
S11309400C9443040C94490411240C948E040E94C6
S11309506B0470F3959FC1F3950F50E0551F629F90
S1130960F001729FBB27F00DB11D639FAA27F00D04
S1130970B11DAA1F649F6627B00DA11D661F829F2B
S11309802227B00DA11D621F739FB00DA11D621F10
S1130990839FA00D611D221F749F3327A00D611D2D
S11309A0231F849F600D211D822F762F6A2F11240F
S11309B09F5750409AF0F1F088234AF0EE0FFF1F42
S11309C0BB1F661F771F881F91505040A9F79E3F99
S11309D0510580F00C9443040C948E045F3FE4F3BF
S11309E0983ED4F3869577956795B795F795E795EF
S11309F09F5FC1F7FE2B880F911D9695879597F9F8
S1090A000895F894FFCFF5
S9030000FC
